:020000020000FC
:0200000045C0F9
:10008C000FEF0DBF00E10EBF00E001BB0FEF02BB95
:10009C0001E00093980000EA0093990000E40093BB
:1000AC009B0008E000939A0006E200939D0000B3C9
:1000BC000F73023011F415D0FACF013011F415D0B2
:1000CC00F6CF043011F415D0F2CF083011F415D05E
:1000DC00EECF003111F415D0EACF003241F715D034
:1000EC00E6CF17D010E91AD0089513D010EA16D025
:1000FC0008950FD010EB12D008950BD010E80ED04D
:10010C00089507D018EC0AD0089503D018EF06D044
:10011C00089515E303D010EA01D0089500919B00D7
:0C012C0000720032FBCF10939C0008957D
:00000001FF
