:020000020000FC
:0200000045C0F9
:10008C000FEF0DBF00E10EBF00E001BB0FEF02BB95
:10009C000FEF07BB00E008BB01E00093980000EAFB
:1000AC000093990002E400939B0008E000939A00EF
:1000BC0007E300939D001127002700B30095037FF1
:1000CC00023008BB11F415D0F6CF013011F415D065
:1000DC00F2CF003811F415D0EECF003111F415D059
:1000EC00EACF003211F415D0E6CF003421F715D049
:1000FC00E2CF17D010E91AD0089513D010EA16D019
:10010C0008950FD010EB12D008950BD010E80ED03C
:10011C00089507D018EC0AD0089503D018EF06D034
:10012C0008950F9315E302D00F9108950F9300914A
:10013C009B0000720032D1F710939C000F91089530
:00000001FF
